{
  "_format": "hh-sol-artifact-1",
  "contractName": "Donation",
  "sourceName": "contracts/Donation.sol",
  "abi": [
    {
      "inputs": [],
      "stateMutability": "nonpayable",
      "type": "constructor"
    },
    {
      "inputs": [],
      "name": "donate",
      "outputs": [
        {
          "internalType": "address",
          "name": "donor",
          "type": "address"
        },
        {
          "internalType": "uint256",
          "name": "amount",
          "type": "uint256"
        }
      ],
      "stateMutability": "view",
      "type": "function"
    },
    {
      "inputs": [
        {
          "internalType": "uint256",
          "name": "",
          "type": "uint256"
        }
      ],
      "name": "donations",
      "outputs": [
        {
          "internalType": "address",
          "name": "donor",
          "type": "address"
        },
        {
          "internalType": "uint256",
          "name": "amount",
          "type": "uint256"
        }
      ],
      "stateMutability": "view",
      "type": "function"
    },
    {
      "inputs": [],
      "name": "getDonations",
      "outputs": [
        {
          "components": [
            {
              "internalType": "address",
              "name": "donor",
              "type": "address"
            },
            {
              "internalType": "uint256",
              "name": "amount",
              "type": "uint256"
            }
          ],
          "internalType": "struct Donation.Donates[]",
          "name": "",
          "type": "tuple[]"
        }
      ],
      "stateMutability": "view",
      "type": "function"
    },
    {
      "inputs": [],
      "name": "getTotalDonations",
      "outputs": [
        {
          "internalType": "uint256",
          "name": "",
          "type": "uint256"
        }
      ],
      "stateMutability": "view",
      "type": "function"
    },
    {
      "inputs": [],
      "name": "totalDonations",
      "outputs": [
        {
          "internalType": "uint256",
          "name": "",
          "type": "uint256"
        }
      ],
      "stateMutability": "view",
      "type": "function"
    },
    {
      "stateMutability": "payable",
      "type": "receive"
    }
  ],
  "bytecode": "0x608060405234801561001057600080fd5b50336000806101000a81548173ffffffffffffffffffffffffffffffffffffffff021916908373ffffffffffffffffffffffffffffffffffffffff1602179055506106a0806100606000396000f3fe60806040526004361061004e5760003560e01c8063777c658f14610194578063de2ed893146101bf578063e25f8416146101ea578063ed88c68e14610215578063f8626af8146102415761018f565b3661018f5760405180604001604052803373ffffffffffffffffffffffffffffffffffffffff16815260200134815250600260008201518160000160006101000a81548173ffffffffffffffffffffffffffffffffffffffff021916908373ffffffffffffffffffffffffffffffffffffffff160217905550602082015181600101559050506004600290806001815401808255809150506001900390600052602060002090600202016000909190919091506000820160009054906101000a900473ffffffffffffffffffffffffffffffffffffffff168160000160006101000a81548173ffffffffffffffffffffffffffffffffffffffff021916908373ffffffffffffffffffffffffffffffffffffffff16021790555060018201548160010155505034600160008282546101869190610592565b92505081905550005b600080fd5b3480156101a057600080fd5b506101a961027f565b6040516101b6919061053e565b60405180910390f35b3480156101cb57600080fd5b506101d4610289565b6040516101e1919061053e565b60405180910390f35b3480156101f657600080fd5b506101ff61028f565b60405161020c919061051c565b60405180910390f35b34801561022157600080fd5b5061022a61034e565b6040516102389291906104f3565b60405180910390f35b34801561024d57600080fd5b50610268600480360381019061026391906103e9565b610380565b6040516102769291906104f3565b60405180910390f35b6000600154905090565b60015481565b60606004805480602002602001604051908101604052809291908181526020016000905b8282101561034557838290600052602060002090600202016040518060400160405290816000820160009054906101000a900473ffffffffffffffffffffffffffffffffffffffff1673ffffffffffffffffffffffffffffffffffffffff1673ffffffffffffffffffffffffffffffffffffffff168152602001600182015481525050815260200190600101906102b3565b50505050905090565b60028060000160009054906101000a900473ffffffffffffffffffffffffffffffffffffffff16908060010154905082565b6004818154811061039057600080fd5b90600052602060002090600202016000915090508060000160009054906101000a900473ffffffffffffffffffffffffffffffffffffffff16908060010154905082565b6000813590506103e381610653565b92915050565b6000602082840312156103fb57600080fd5b6000610409848285016103d4565b91505092915050565b600061041e83836104a6565b60408301905092915050565b610433816105e8565b82525050565b610442816105e8565b82525050565b600061045382610569565b61045d8185610581565b935061046883610559565b8060005b838110156104995781516104808882610412565b975061048b83610574565b92505060018101905061046c565b5085935050505092915050565b6040820160008201516104bc600085018261042a565b5060208201516104cf60208501826104d5565b50505050565b6104de8161061a565b82525050565b6104ed8161061a565b82525050565b60006040820190506105086000830185610439565b61051560208301846104e4565b9392505050565b600060208201905081810360008301526105368184610448565b905092915050565b600060208201905061055360008301846104e4565b92915050565b6000819050602082019050919050565b600081519050919050565b6000602082019050919050565b600082825260208201905092915050565b600061059d8261061a565b91506105a88361061a565b9250827fffffffffffffffffffffffffffffffffffffffffffffffffffffffffffffffff038211156105dd576105dc610624565b5b828201905092915050565b60006105f3826105fa565b9050919050565b600073ffffffffffffffffffffffffffffffffffffffff82169050919050565b6000819050919050565b7f4e487b7100000000000000000000000000000000000000000000000000000000600052601160045260246000fd5b61065c8161061a565b811461066757600080fd5b5056fea2646970667358221220810800db9b864f7760ca9d8a7dd26b7cb064cfc2ef589eb2019d065be15c1b9664736f6c63430008000033",
  "linkReferences": {},
  "deployedLinkReferences": {}
}